{
  "contractName": "ERC20",
  "abi": [
    {
      "inputs": [],
      "stateMutability": "nonpayable",
      "type": "constructor"
    },
    {
      "anonymous": false,
      "inputs": [
        {
          "indexed": true,
          "internalType": "address",
          "name": "_owner",
          "type": "address"
        },
        {
          "indexed": true,
          "internalType": "address",
          "name": "_spender",
          "type": "address"
        },
        {
          "indexed": false,
          "internalType": "uint256",
          "name": "_value",
          "type": "uint256"
        }
      ],
      "name": "Approval",
      "type": "event"
    },
    {
      "anonymous": false,
      "inputs": [
        {
          "indexed": true,
          "internalType": "address",
          "name": "_from",
          "type": "address"
        },
        {
          "indexed": true,
          "internalType": "address",
          "name": "_to",
          "type": "address"
        },
        {
          "indexed": false,
          "internalType": "uint256",
          "name": "_value",
          "type": "uint256"
        }
      ],
      "name": "Transfer",
      "type": "event"
    },
    {
      "inputs": [],
      "name": "name",
      "outputs": [
        {
          "internalType": "string",
          "name": "",
          "type": "string"
        }
      ],
      "stateMutability": "pure",
      "type": "function",
      "constant": true
    },
    {
      "inputs": [],
      "name": "symbol",
      "outputs": [
        {
          "internalType": "string",
          "name": "",
          "type": "string"
        }
      ],
      "stateMutability": "pure",
      "type": "function",
      "constant": true
    },
    {
      "inputs": [],
      "name": "decimals",
      "outputs": [
        {
          "internalType": "uint8",
          "name": "",
          "type": "uint8"
        }
      ],
      "stateMutability": "pure",
      "type": "function",
      "constant": true
    },
    {
      "inputs": [],
      "name": "totalSupply",
      "outputs": [
        {
          "internalType": "uint256",
          "name": "",
          "type": "uint256"
        }
      ],
      "stateMutability": "view",
      "type": "function",
      "constant": true
    },
    {
      "inputs": [
        {
          "internalType": "address",
          "name": "_owner",
          "type": "address"
        }
      ],
      "name": "balanceOf",
      "outputs": [
        {
          "internalType": "uint256",
          "name": "balance",
          "type": "uint256"
        }
      ],
      "stateMutability": "view",
      "type": "function",
      "constant": true
    },
    {
      "inputs": [
        {
          "internalType": "address",
          "name": "_to",
          "type": "address"
        },
        {
          "internalType": "uint256",
          "name": "_value",
          "type": "uint256"
        }
      ],
      "name": "transfer",
      "outputs": [
        {
          "internalType": "bool",
          "name": "success",
          "type": "bool"
        }
      ],
      "stateMutability": "nonpayable",
      "type": "function"
    },
    {
      "inputs": [
        {
          "internalType": "address",
          "name": "_from",
          "type": "address"
        },
        {
          "internalType": "address",
          "name": "_to",
          "type": "address"
        },
        {
          "internalType": "uint256",
          "name": "_value",
          "type": "uint256"
        }
      ],
      "name": "transferFrom",
      "outputs": [
        {
          "internalType": "bool",
          "name": "success",
          "type": "bool"
        }
      ],
      "stateMutability": "nonpayable",
      "type": "function"
    },
    {
      "inputs": [
        {
          "internalType": "address",
          "name": "_spender",
          "type": "address"
        },
        {
          "internalType": "uint256",
          "name": "_value",
          "type": "uint256"
        }
      ],
      "name": "approve",
      "outputs": [
        {
          "internalType": "bool",
          "name": "success",
          "type": "bool"
        }
      ],
      "stateMutability": "nonpayable",
      "type": "function"
    },
    {
      "inputs": [
        {
          "internalType": "address",
          "name": "_owner",
          "type": "address"
        },
        {
          "internalType": "address",
          "name": "_spender",
          "type": "address"
        }
      ],
      "name": "allowance",
      "outputs": [
        {
          "internalType": "uint256",
          "name": "remaining",
          "type": "uint256"
        }
      ],
      "stateMutability": "view",
      "type": "function",
      "constant": true
    },
    {
      "inputs": [
        {
          "internalType": "address",
          "name": "account",
          "type": "address"
        },
        {
          "internalType": "uint256",
          "name": "amount",
          "type": "uint256"
        }
      ],
      "name": "mint",
      "outputs": [
        {
          "internalType": "bool",
          "name": "success",
          "type": "bool"
        }
      ],
      "stateMutability": "nonpayable",
      "type": "function"
    },
    {
      "inputs": [
        {
          "internalType": "uint256",
          "name": "amount",
          "type": "uint256"
        }
      ],
      "name": "burn",
      "outputs": [
        {
          "internalType": "bool",
          "name": "success",
          "type": "bool"
        }
      ],
      "stateMutability": "nonpayable",
      "type": "function"
    },
    {
      "inputs": [
        {
          "internalType": "address",
          "name": "account",
          "type": "address"
        },
        {
          "internalType": "uint256",
          "name": "amount",
          "type": "uint256"
        }
      ],
      "name": "burnFrom",
      "outputs": [
        {
          "internalType": "bool",
          "name": "success",
          "type": "bool"
        }
      ],
      "stateMutability": "nonpayable",
      "type": "function"
    }
  ],
  "bytecode": "0x608060405234801561001057600080fd5b5033600160006101000a81548173ffffffffffffffffffffffffffffffffffffffff021916908373ffffffffffffffffffffffffffffffffffffffff160217905550611493806100616000396000f3fe608060405234801561001057600080fd5b50600436106100b45760003560e01c806342966c681161007157806342966c68146101a357806370a08231146101d357806379cc67901461020357806395d89b4114610233578063a9059cbb14610251578063dd62ed3e14610281576100b4565b806306fdde03146100b9578063095ea7b3146100d757806318160ddd1461010757806323b872dd14610125578063313ce5671461015557806340c10f1914610173575b600080fd5b6100c16102b1565b6040516100ce9190611125565b60405180910390f35b6100f160048036038101906100ec91906111e0565b6102ee565b6040516100fe919061123b565b60405180910390f35b61010f610418565b60405161011c9190611265565b60405180910390f35b61013f600480360381019061013a9190611280565b610421565b60405161014c919061123b565b60405180910390f35b61015d6107d9565b60405161016a91906112ef565b60405180910390f35b61018d600480360381019061018891906111e0565b6107e2565b60405161019a919061123b565b60405180910390f35b6101bd60048036038101906101b8919061130a565b610850565b6040516101ca919061123b565b60405180910390f35b6101ed60048036038101906101e89190611337565b610863565b6040516101fa9190611265565b60405180910390f35b61021d600480360381019061021891906111e0565b6108ac565b60405161022a919061123b565b60405180910390f35b61023b610a58565b6040516102489190611125565b60405180910390f35b61026b600480360381019061026691906111e0565b610a95565b604051610278919061123b565b60405180910390f35b61029b60048036038101906102969190611364565b610cb4565b6040516102a89190611265565b60405180910390f35b60606040518060400160405280600e81526020017f576861742069732074686973203f000000000000000000000000000000000000815250905090565b60008073ffffffffffffffffffffffffffffffffffffffff168373ffffffffffffffffffffffffffffffffffffffff160361032857600080fd5b81600360003373ffffffffffffffffffffffffffffffffffffffff1673ffffffffffffffffffffffffffffffffffffffff16815260200190815260200160002060008573ffffffffffffffffffffffffffffffffffffffff1673ffffffffffffffffffffffffffffffffffffffff168152602001908152602001600020819055508273ffffffffffffffffffffffffffffffffffffffff163373ffffffffffffffffffffffffffffffffffffffff167f8c5be1e5ebec7d5bd14f71427d1e84f3dd0314c0f7b2291e5b200ac8c7c3b925846040516104069190611265565b60405180910390a36001905092915050565b60008054905090565b60008073ffffffffffffffffffffffffffffffffffffffff168373ffffffffffffffffffffffffffffffffffffffff160361045b57600080fd5b600360008573ffffffffffffffffffffffffffffffffffffffff1673ffffffffffffffffffffffffffffffffffffffff16815260200190815260200160002060003373ffffffffffffffffffffffffffffffffffffffff1673ffffffffffffffffffffffffffffffffffffffff168152602001908152602001600020548211156104e457600080fd5b600260008573ffffffffffffffffffffffffffffffffffffffff1673ffffffffffffffffffffffffffffffffffffffff1681526020019081526020016000205482111561053057600080fd5b6105bf82600360008773ffffffffffffffffffffffffffffffffffffffff1673ffffffffffffffffffffffffffffffffffffffff16815260200190815260200160002060003373ffffffffffffffffffffffffffffffffffffffff1673ffffffffffffffffffffffffffffffffffffffff16815260200190815260200160002054610d3b90919063ffffffff16565b600360008673ffffffffffffffffffffffffffffffffffffffff1673ffffffffffffffffffffffffffffffffffffffff16815260200190815260200160002060003373ffffffffffffffffffffffffffffffffffffffff1673ffffffffffffffffffffffffffffffffffffffff1681526020019081526020016000208190555061069182600260008773ffffffffffffffffffffffffffffffffffffffff1673ffffffffffffffffffffffffffffffffffffffff16815260200190815260200160002054610d3b90919063ffffffff16565b600260008673ffffffffffffffffffffffffffffffffffffffff1673ffffffffffffffffffffffffffffffffffffffff1681526020019081526020016000208190555061072682600260008673ffffffffffffffffffffffffffffffffffffffff1673ffffffffffffffffffffffffffffffffffffffff16815260200190815260200160002054610d6490919063ffffffff16565b600260008573ffffffffffffffffffffffffffffffffffffffff1673ffffffffffffffffffffffffffffffffffffffff168152602001908152602001600020819055508273ffffffffffffffffffffffffffffffffffffffff168473ffffffffffffffffffffffffffffffffffffffff167fddf252ad1be2c89b69c2b068fc378daa952ba7f163c4a11628f55a4df523b3ef846040516107c69190611265565b60405180910390a3600190509392505050565b60006008905090565b6000600160009054906101000a900473ffffffffffffffffffffffffffffffffffffffff1673ffffffffffffffffffffffffffffffffffffffff163373ffffffffffffffffffffffffffffffffffffffff161461083e57600080fd5b6108488383610d8c565b905092915050565b600061085c3383610ee6565b9050919050565b6000600260008373ffffffffffffffffffffffffffffffffffffffff1673ffffffffffffffffffffffffffffffffffffffff168152602001908152602001600020549050919050565b6000600360008473ffffffffffffffffffffffffffffffffffffffff1673ffffffffffffffffffffffffffffffffffffffff16815260200190815260200160002060003373ffffffffffffffffffffffffffffffffffffffff1673ffffffffffffffffffffffffffffffffffffffff1681526020019081526020016000205482111561093757600080fd5b6109c682600360008673ffffffffffffffffffffffffffffffffffffffff1673ffffffffffffffffffffffffffffffffffffffff16815260200190815260200160002060003373ffffffffffffffffffffffffffffffffffffffff1673ffffffffffffffffffffffffffffffffffffffff16815260200190815260200160002054610d3b90919063ffffffff16565b600360008573ffffffffffffffffffffffffffffffffffffffff1673ffffffffffffffffffffffffffffffffffffffff16815260200190815260200160002060003373ffffffffffffffffffffffffffffffffffffffff1673ffffffffffffffffffffffffffffffffffffffff16815260200190815260200160002081905550610a508383610ee6565b905092915050565b60606040518060400160405280600381526020017f5749540000000000000000000000000000000000000000000000000000000000815250905090565b60008073ffffffffffffffffffffffffffffffffffffffff168373ffffffffffffffffffffffffffffffffffffffff1603610acf57600080fd5b600260003373ffffffffffffffffffffffffffffffffffffffff1673ffffffffffffffffffffffffffffffffffffffff16815260200190815260200160002054821115610b1b57600080fd5b610b6d82600260003373ffffffffffffffffffffffffffffffffffffffff1673ffffffffffffffffffffffffffffffffffffffff16815260200190815260200160002054610d3b90919063ffffffff16565b600260003373ffffffffffffffffffffffffffffffffffffffff1673ffffffffffffffffffffffffffffffffffffffff16815260200190815260200160002081905550610c0282600260008673ffffffffffffffffffffffffffffffffffffffff1673ffffffffffffffffffffffffffffffffffffffff16815260200190815260200160002054610d6490919063ffffffff16565b600260008573ffffffffffffffffffffffffffffffffffffffff1673ffffffffffffffffffffffffffffffffffffffff168152602001908152602001600020819055508273ffffffffffffffffffffffffffffffffffffffff163373ffffffffffffffffffffffffffffffffffffffff167fddf252ad1be2c89b69c2b068fc378daa952ba7f163c4a11628f55a4df523b3ef84604051610ca29190611265565b60405180910390a36001905092915050565b6000600360008473ffffffffffffffffffffffffffffffffffffffff1673ffffffffffffffffffffffffffffffffffffffff16815260200190815260200160002060008373ffffffffffffffffffffffffffffffffffffffff1673ffffffffffffffffffffffffffffffffffffffff16815260200190815260200160002054905092915050565b600082821115610d4a57600080fd5b60008284610d5891906113d3565b90508091505092915050565b6000808284610d739190611407565b905083811015610d8257600080fd5b8091505092915050565b60008073ffffffffffffffffffffffffffffffffffffffff168373ffffffffffffffffffffffffffffffffffffffff1603610dc657600080fd5b610ddb82600054610d6490919063ffffffff16565b600081905550610e3382600260008673ffffffffffffffffffffffffffffffffffffffff1673ffffffffffffffffffffffffffffffffffffffff16815260200190815260200160002054610d6490919063ffffffff16565b600260008573ffffffffffffffffffffffffffffffffffffffff1673ffffffffffffffffffffffffffffffffffffffff168152602001908152602001600020819055508273ffffffffffffffffffffffffffffffffffffffff16600073ffffffffffffffffffffffffffffffffffffffff167fddf252ad1be2c89b69c2b068fc378daa952ba7f163c4a11628f55a4df523b3ef84604051610ed49190611265565b60405180910390a36001905092915050565b60008073ffffffffffffffffffffffffffffffffffffffff168373ffffffffffffffffffffffffffffffffffffffff1603610f2057600080fd5b600260008473ffffffffffffffffffffffffffffffffffffffff1673ffffffffffffffffffffffffffffffffffffffff16815260200190815260200160002054821115610f6c57600080fd5b610fbe82600260008673ffffffffffffffffffffffffffffffffffffffff1673ffffffffffffffffffffffffffffffffffffffff16815260200190815260200160002054610d3b90919063ffffffff16565b600260008573ffffffffffffffffffffffffffffffffffffffff1673ffffffffffffffffffffffffffffffffffffffff1681526020019081526020016000208190555061101682600054610d3b90919063ffffffff16565b600081905550600073ffffffffffffffffffffffffffffffffffffffff168373ffffffffffffffffffffffffffffffffffffffff167fddf252ad1be2c89b69c2b068fc378daa952ba7f163c4a11628f55a4df523b3ef8460405161107a9190611265565b60405180910390a36001905092915050565b600081519050919050565b600082825260208201905092915050565b60005b838110156110c65780820151818401526020810190506110ab565b838111156110d5576000848401525b50505050565b6000601f19601f8301169050919050565b60006110f78261108c565b6111018185611097565b93506111118185602086016110a8565b61111a816110db565b840191505092915050565b6000602082019050818103600083015261113f81846110ec565b905092915050565b600080fd5b600073ffffffffffffffffffffffffffffffffffffffff82169050919050565b60006111778261114c565b9050919050565b6111878161116c565b811461119257600080fd5b50565b6000813590506111a48161117e565b92915050565b6000819050919050565b6111bd816111aa565b81146111c857600080fd5b50565b6000813590506111da816111b4565b92915050565b600080604083850312156111f7576111f6611147565b5b600061120585828601611195565b9250506020611216858286016111cb565b9150509250929050565b60008115159050919050565b61123581611220565b82525050565b6000602082019050611250600083018461122c565b92915050565b61125f816111aa565b82525050565b600060208201905061127a6000830184611256565b92915050565b60008060006060848603121561129957611298611147565b5b60006112a786828701611195565b93505060206112b886828701611195565b92505060406112c9868287016111cb565b9150509250925092565b600060ff82169050919050565b6112e9816112d3565b82525050565b600060208201905061130460008301846112e0565b92915050565b6000602082840312156113205761131f611147565b5b600061132e848285016111cb565b91505092915050565b60006020828403121561134d5761134c611147565b5b600061135b84828501611195565b91505092915050565b6000806040838503121561137b5761137a611147565b5b600061138985828601611195565b925050602061139a85828601611195565b9150509250929050565b7f4e487b7100000000000000000000000000000000000000000000000000000000600052601160045260246000fd5b60006113de826111aa565b91506113e9836111aa565b9250828210156113fc576113fb6113a4565b5b828203905092915050565b6000611412826111aa565b915061141d836111aa565b9250827fffffffffffffffffffffffffffffffffffffffffffffffffffffffffffffffff03821115611452576114516113a4565b5b82820190509291505056fea2646970667358221220534954a84ad7875e51712917324ab1bd05979065af2eabcc8b88904c807db27364736f6c634300080d0033",
  "immutableReferences": {},
  "source": "// SPDX-License-Identifier: GPL-3.0\npragma solidity ^0.8.13;\n\nimport \"./IERC20.sol\";\nimport \"./SafeMathOnUint256.sol\";\n\n/**\n* @title WIT(What is this?) about ERC20 contract.\n* @dev NOTICE! The contract just demo use test!\n*/\ncontract ERC20 is IERC20{\n    using SafeMathOnUint256 for uint256;\n\n    string constant NAME = \"What is this ?\";\n    string constant SYMBOL = \"WIT\";\n    uint8 constant DECIMALS = 8;\n\n    uint _totalSupply;\n    address _manager;\n    mapping(address => uint) _balances;\n    mapping(address => mapping(address => uint)) _allowed;\n\n    constructor(){\n        _manager = msg.sender;\n    }\n\n    function name() public pure returns (string memory){\n        return NAME;\n    }\n\n    function symbol() public pure returns (string memory){\n        return SYMBOL;\n    }\n\n    function decimals() public pure returns (uint8){\n        return DECIMALS;\n    }\n\n    function totalSupply() public view returns (uint256){\n        return _totalSupply;\n    }\n\n    function balanceOf(address _owner) public view returns (uint256 balance){\n        return _balances[_owner];\n    }\n\n    function transfer(address _to, uint256 _value) public returns (bool success){\n        require(_to != address(0));\n        require(_value <= _balances[msg.sender]);\n\n        _balances[msg.sender] = _balances[msg.sender].sub(_value);\n        _balances[_to] = _balances[_to].add(_value);\n\n        emit Transfer(msg.sender, _to, _value);\n\n        return true;\n    }\n\n    function transferFrom(address _from, address _to, uint256 _value) public returns (bool success){\n        require(_to != address(0));\n        require(_value <= _allowed[_from][msg.sender]);\n        require(_value <= _balances[_from]);\n\n        _allowed[_from][msg.sender] = _allowed[_from][msg.sender].sub(_value);\n        _balances[_from] = _balances[_from].sub(_value);\n        _balances[_to] = _balances[_to].add(_value);\n\n        emit Transfer(_from, _to, _value);\n\n        return true;\n    }\n\n    function approve(address _spender, uint256 _value) public returns (bool success){\n        require(_spender != address(0));\n\n        _allowed[msg.sender][_spender] = _value;\n\n        emit Approval(msg.sender, _spender, _value);\n\n        return true;\n    }\n\n    function allowance(address _owner, address _spender) public view returns (uint256 remaining){\n        return _allowed[_owner][_spender];\n    }\n\n\n    function mint(address account, uint256 amount) public returns(bool success){\n        require(msg.sender == _manager);\n\n        return _mint(account, amount);\n    }\n\n    function burn(uint256 amount) public returns(bool success){\n        return _burn(msg.sender, amount);\n    }\n\n    function burnFrom(address account, uint256 amount) public returns(bool success){\n        require(amount <= _allowed[account][msg.sender]);\n\n        _allowed[account][msg.sender] = _allowed[account][msg.sender].sub(amount);\n\n        return _burn(account, amount);\n    }\n\n    function _mint(address account, uint256 amount) private returns(bool success){\n        require(account != address(0));\n\n        _totalSupply = _totalSupply.add(amount);\n        _balances[account] = _balances[account].add(amount);\n\n        emit Transfer(address(0), account, amount);\n\n        return true;\n    }\n\n    function _burn(address account, uint256 amount) private returns(bool success){\n        require(account != address(0));\n        require(amount <= _balances[account]);\n\n        _balances[account] = _balances[account].sub(amount);\n        _totalSupply = _totalSupply.sub(amount);\n\n        emit Transfer(account, address(0), amount);\n\n        return true;\n    }\n}",
  "sourcePath": "/Users/felix/work/demo/blockchain/ERC20/contracts/ERC20.sol",
  "compiler": {
    "name": "solc",
    "version": "0.8.13+commit.abaa5c0e.Emscripten.clang"
  },
  "schemaVersion": "3.4.6",
  "updatedAt": "2022-03-31T13:28:33.447Z",
  "networkType": "ethereum",
  "devdoc": {
    "details": "NOTICE! The contract just demo use test!",
    "kind": "dev",
    "methods": {},
    "title": "WIT(What is this?) about ERC20 contract.",
    "version": 1
  },
  "userdoc": {
    "kind": "user",
    "methods": {},
    "version": 1
  }
}